:020000040000fa
:10000000f87f002049030000670500008505000017
:1000100000000000000000000000000000000000e0
:100020000000000000000000000000000b050000c0
:1000300000000000000000000b0500002904000083
:100040000b0500000b0500000b0500000b05000070
:100050000b0500000b0500000b0500000b05000060
:100060000b0500000b0500000b0500000b05000050
:100070000b0500000b0500000b05000051040000fb
:100080000b0500000b0500000b0500000b05000030
:100090000b0500000b0500000b0500000b05000020
:1000a0000b0500000b0500000b0500000b05000010
:020000040000fa
:1000b000f8b5c046f8bc08bc9e467047290300004e
:1000c000f8b5c046f8bc08bc9e4670470103000066
:020000040000fa
:1000d000234b0e229a821a000223d1680b42fcd0d5
:1000e0001f4b00229a619a8c80218a439a841a00bd
:1000f0001023d1680b42fcd01a4b1b689b0e3f2b80
:100100002bd09b02802292001343154a9362102346
:10011000d1680b42fcd0124b02229a841a001023a1
:10012000d1680b42fcd0104b104a5a601a00537829
:100130005bb2002bfbdb0c4b0d4a5a601a00537864
:100140005bb2002bfbdb084b0a4a5a800a4b0b4a76
:100150001a62034b00221a627047203bd1e7c04667
:100160000008004024608000000c004001050100f0
:10017000000701001a4000000004004000010100d7
:020000040000fa
:1001800010b51c4b19681c4b1b6bdb0303d40b0213
:100190001b0a194a1367194b1a68174b1b6b9b03f1
:1001a00003d413021b0a14484367154b1b681248fb
:1001b000006b400303d41802000a0f4ca0670a31f9
:1001c0000c4801600a320d4802600a330c48036093
:1001d0000c480068814202d9064900240c60824222
:1001e00002d9064a00211160834202d9044b002241
:1001f0001a6010bd80000020002000429000002006
:0802000094000020840000209e
:020000040000fa
:1002080000230e4a10b513600d4a13600d4a13609f
:100218000d4a13600d4a13600d4a5362136101338e
:10022800936000f0aef900f0acf90a4c0a4b9c421e
:1002380000d310bd08cc9847f8e7c0468c000020d2
:100248000c0000200800002000000020040000200e
:0c02580010000020bc000000c0000000ee
:020000040000fa
:100264005000002038000000000000009000002032
:100274000800000001000000200300004006000008
:10028400880000200400000000000000000000209e
:1002940050000000000000008c000020040000005a
:1002a40000000000000000000000000066666666b2
:020000040000fa
:1002b4000f4b01221a6019008b681a42fcd10c4bb7
:1002c400802252011a6000225a6158690949014387
:1002d40059610521d9635a649a64da641a65064a35
:1002e4001a6401229a621a009368002bfcd17047a9
:0c02f40000200042000f40405f090000a5
:020000040000fa
:1003000010b5064c2378002b07d1054b002b02d0eb
:10031000044800e000bf0123237010bd50000020fe
:100320000000000000000000044b10b5002b03d0bb
:100330000349044800e000bf10bdc04600000000b3
:08034000540000200000000041
:020000040000fa
:1003480010b50a4b98470a4b984700f039f8094b03
:10035800ff229343084a9360084b9847084b9847f5
:10036800084b984700f098f8fee7c046870500005c
:10037800870500000000000000ed00e00902000011
:08038800870500008705000055
:020000040000fa
:100390000c4b012248215a5401315a5401315a540c
:1003a0001639442058542f390f38195495301a549f
:1003b00001301a5401301a54b4327738985401324b
:0803c00099547047004400410c
:020000040000fa
:1003c80010b50b480168002905d14368002b02d1fc
:1003d80000f0d6f810bd04008368064a9bb20c34be
:1003e8009b009b5842682000984780002018e9e746
:0803f800640200004005000052
:020000040000fa
:10040000bff35f8f62b6074ac320800013581b02f8
:100410001b0ac02109060b43135080231b021360e3
:080420007047c04600e100e056
:020000040000fa
:1004280010b5074b5868074a12689a6801329a60f3
:100438001b68002b02d0024b1b68984710bdc046b2
:080448006c00002010e000e050
:020000040000fa
:1004500010b5064a5168064bd86a064cdc62db6a66
:100460001368002b01d01368984710bd7800002056
:08047000002000420ff80f000c
:020000040000fa
:1004780010b5084b06225a60fff786fffff724fee7
:1004880000f06ef8fff712ff00f01af8fff7b4ff5c
:0804980010bdc0460040004108
:020000040000fa
:1004a00010b50020fff7e8ff0021054800f062f8d2
:1004b00000f03af8034b186000f028f8fee7c04659
:0804c00081010000840000200e
:020000040000fa
:1004c800054a0023136093600449516006211160b6
:1004d800034a93601360704710e000e07fbb0000a0
:0404e8006c00002084
:020000040000fa
:1004ec00002310b5934206d103201840421e9041c0
:0e04fc009b08c01810bdc45ccc540133f2e75d
:020000040000fa
:02050a00fee70a
:020000040000fa
:10050c00054a136802210b431360110002228b6809
:0c051c001a42fcd17047c046002000428b
:020000040000fa
:10052800044980228b681a42fcd1024b186c0002e5
:08053800000a70470020004298
:020000040000fa
:1005400055050000ed040000810500008105000054
:040550008105000021
:020000040000fa
:100554008a18914201d10020704700230b700131a9
:02056400f7e7b7
:020000040000fa
:02056600fee7ae
:020000040000fa
:0c056800014b82225a60704700400041a5
:020000040000fa
:0c057400014b18605960704778000020af
:020000040000fa
:0405800000207047a0
:020000040000fa
:02058400fee790
:020000040000fa
:020586007047bc
:020000040000fa
:020588007047ba
:020000040000fa
:02058a007047b8
:020000040000fa
:0200000400807a
:0440000077c700d8a6
:020000040000fa
:0200000400807a
:044004005c00ffff5e
:00000001FF
