:10000000008000202D040000830300008503000011
:1000100000000000000000000000000000000000E0
:10002000000000000000000000000000810300004C
:1000300000000000000000008103000071020000C9
:1000400081030000810300008103000081030000A0
:100050008103000081030000810300008103000090
:100060008103000081030000810300008103000080
:1000700081030000810300008103000019030000D8
:100080008103000081030000810300008103000060
:100090008103000081030000810300008103000050
:1000A0008103000081030000810300008103000040
:1000B0000448054B10B5834203D0044B002B00D0FD
:1000C000984710BD440400204404002000000000B4
:1000D00006480749091A8B10C90FC91810B54910ED
:1000E00003D0044B002B00D0984710BD44040020DF
:1000F000440400200000000010B5074C2378002BBA
:1001000009D1FFF7D5FF054B002B02D0044800E0D2
:1001100000BF0123237010BD440400200000000034
:1001200038060000054B10B5002B03D004490548E4
:1001300000E000BFFFF7CCFF10BDC046000000008C
:1001400048040020380600000E221D4B9A820C3A0B
:10015000D9681142FCD0002280219A619A8C8A438E
:100160009A841022D9681142FCD0164A1268920E65
:100170003F2A00D1203A8021920289000A439A62E4
:100180001022D9681142FCD002229A840E32D9681A
:100190001142FCD00C4A0D495160517849B20029F6
:1001A000FBDB0B495160517849B20029FBDB09495F
:1001B0005180094A0949116200221A627047C046FB
:1001C0000008004024608000000C00400105010090
:1001D000000701001A400000000400400001010077
:1001E000BFF35F8F62B6C320C021064A8000135858
:1001F00009061B021B0A0B43135080231B021360CA
:100200007047C04600E100E08222014B5A6070470F
:10021000004000410C4B01221900442048310A7073
:100220004A708A7014390870180005213530017041
:1002300095300270427082701A005520B532B63384
:10024000107019707047C046004400410023054AF1
:10025000054913609360516006211160034A936061
:100260001360704710E000E07FBB000060040020D6
:10027000064B074A586812689A6810B501329A60AE
:100280001A68002A01D01B68984710BD600400203E
:1002900010E000E001210E4B10B5196098680200D3
:1002A0000A400842FAD18020400118605A615C6916
:1002B0000848204358610520D8635A649A64DA6478
:1002C0001A65054A1A6499629A68002AFCD110BD21
:1002D00000200042000F40405F0900000221044B53
:1002E0001A680A431A609A680A42FCD17047C046ED
:1002F000002000428022044B99681142FCD1186C06
:100300000002000A7047C04600200042014B1860FE
:10031000596070476C040020064A10B5064B074C24
:100320005968D06AD462D26A1A68002A01D01B6860
:10033000984710BD002000426C0400200FF80F0009
:100340000622084B10B55A60074B9847074B984751
:10035000074B9847074B9847074B9847074B9847D9
:1003600010BDC046004000411502000049010000D8
:1003700009020000950200004D020000E1010000AA
:10038000FEE7FEE7FEE70000164A70B5136B164D58
:100390002C68DB0302D423021B0A1367134B116B77
:1003A0001868890302D40102090A5167166B59685B
:1003B000760302D40E02360A96670A0069680A3488
:1003C0000A300A322C6018605A608C4201D900242D
:1003D0002C60884201D9002018608A4201D900228D
:1003E0005A6070BD0020004274040020000000200C
:1003F00010B50020064B984700210648064B984749
:10040000064B9847064B5860064B9847FEE7C04698
:1004100041030000890300000D030000F502000005
:1004200074040020DD0200007047000070B5264B08
:100430009847264B264A934212D21C001500226888
:100440006068A168002908D0890089181300801A03
:100450001A68C25004338B42FAD10C34AC42EED34A
:100460001C4B1D4A934213D21C4B1A481C1AE40819
:100470000134E4002418002103684268002A04D0F3
:100480009200D21802C39A42FCD10830A042F3D1A4
:10049000134BFF229343134A9360134A90235B004C
:1004A0000221D150114B0A22DA70114B20329A737B
:1004B000104A53687E310B4353600F4B98470F4BE4
:1004C00098470F4B9847FEE7290400003C060000C0
:1004D00054060000540600005C0600005B060000A5
:1004E0000000000000ED00E00070004100500041FD
:1004F00000480041004000413D0500002904000083
:10050000F103000010B5010000230022002000F0DC
:1005100039F810BD70B5074C074D641BA41005D009
:10052000013CA300EB589847002CF9D100F07CF86F
:1005300070BDC046440400204004002070B50D4B3F
:100540000D4D5E1BB610AB4205D0002408CD013422
:100550009847A642FAD800F061F8084B084D5E1B98
:10056000B610AB4205D0002408CD01349847A6420E
:10057000FAD870BD38040020380400204004002060
:1005800038040020F0B5A426C6461D4C7600246829
:1005900000B5A559002D2AD06C681F2C2CDC002832
:1005A00008D10020631C0234A4006B60615180BC40
:1005B000B846F0BD8827A600AE19F2510137FF37C3
:1005C000BC460122AC446746A2403F6890461743B0
:1005D0006246176084277F00F3510228E1D128008A
:1005E00042468D30FF30036813430360D9E725008E
:1005F0004D35FF35A551CFE701204042D7E7C04632
:1006000034060000034B10B5002B02D00248FFF760
:1006100079FF10BD0000000015050000F8B5C046C8
:10062000F8BC08BC9E467047F8B5C046F8BC08BC8C
:0C0630009E4670471000002000000000F3
:10063C005C0600000000002011010000A00A000070
:08064C0044040020000000003E
:08065400440400200E00000028
:10065C0020030000400600001000002000000000F5
:10066C0000000000FC02002064030020CC030020EA
:10067C00000000000000000000000000000000006E
:10068C00000000000000000000000000000000005E
:10069C00000000000000000000000000000000004E
:1006AC00000000000000000000000000000000003E
:1006BC00000000000000000000000000000000002E
:1006CC00000000000000000000000000000000001E
:1006DC00000000000000000000000000000000000E
:1006EC0000000000000000000000000000000000FE
:1006FC0000000000000000000000000000000000EE
:10070C0000000000000000000100000000000000DC
:10071C000E33CDAB34126DE6ECDE05000B000000A1
:10072C0000000000000000000000000000000000BD
:10073C0000000000000000000000000000000000AD
:10074C00000000000000000000000000000000009D
:10075C00000000000000000000000000000000008D
:100A8C000000000000000000050600002501000029
:040A9C00F90000005D
:040000030000042DC8
:00000001FF
